:0400000007EF00F016
:0A0008003A8229ED05F0E0EF05F063
:1008000000496E697469616C697A696E672E2E2E73
:100810000057656C636F6D65210023002A0030006E
:100820003100320033003400350036003700380024
:0B08300039004100420043004400007A
:10083C00B8EC05F0000E116E000E106EF9D0384AAF
:10084C00392A38C00AF0200E0B6E080E0C6E36508A
:10085C0019EC06F0EBD0384A392A38C00AF0220ECF
:10086C000B6E080E0C6E365019EC06F0DFD0384AC1
:10087C00392A38C00AF0240E0B6E080E0C6E365056
:10088C0019EC06F0D3D0384A392A38C00AF0320EA7
:10089C000B6E080E0C6E365019EC06F0C7D0384AA9
:1008AC00392A38C00AF0260E0B6E080E0C6E365024
:1008BC0019EC06F0BBD0384A392A38C00AF0280E99
:1008CC000B6E080E0C6E365019EC06F0AFD0384A91
:1008DC00392A38C00AF02A0E0B6E080E0C6E3650F0
:1008EC0019EC06F0A3D0384A392A38C00AF0340E75
:1008FC000B6E080E0C6E365019EC06F097D0384A79
:10090C00392A38C00AF02C0E0B6E080E0C6E3650BD
:10091C0019EC06F08BD0384A392A38C00AF02E0E62
:10092C000B6E080E0C6E365019EC06F07FD0384A60
:10093C00392A38C00AF0300E0B6E080E0C6E365089
:10094C0019EC06F073D0384A392A38C00AF0360E42
:10095C000B6E080E0C6E365019EC06F067D0384A48
:10096C00392A38C00AF01C0E0B6E080E0C6E36506D
:10097C0019EC06F05BD0384A392A38C00AF01E0E42
:10098C000B6E080E0C6E365019EC06F04FD0384A30
:10099C00392A38C00AF01A0E0B6E080E0C6E36503F
:1009AC0019EC06F043D0384A392A38C00AF0380E10
:1009BC000B6E080E0C6E365019EC06F037D0600E2C
:1009CC001024D96E000E1120DA6EDF50010AD8B453
:1009DC0036D7030AD8B43FD7010AD8B448D7070A88
:1009EC00D8B451D7010AD8B45AD7030AD8B463D7AC
:1009FC00010AD8B46CD70F0AD8B475D7010AD8B489
:100A0C007ED7030AD8B487D7010AD8B490D7070A7F
:100A1C00D8B499D7010AD8B4A2D7030AD8B4ABD7A3
:100A2C00010AD8B4B4D71F0AD8B4BDD7104A112ABA
:100A3C001050345C3550800A0F6E1150800A0F58DC
:100A4C00D8A01200BCD70600FACF12F0FBCF13F0DF
:100A5C00E9CF14F0EACF15F0E1CF16F0E2CF17F0A2
:100A6C00D9CF18F0DACF19F0F3CF1AF0F4CF1BF07E
:100A7C00F6CF1CF0F7CF1DF0F8CF1EF0F5CF1FF01E
:100A8C003AC020F03BC021F03CC022F03DC023F026
:100A9C009EAA0FD0344A352A600E3424D96E000E2B
:100AAC003520DA6EAECFDFFF1EEC04F0FFEC06F063
:100ABC009E9A23C03DF022C03CF021C03BF020C0E8
:100ACC003AF01FC0F5FF1EC0F8FF1DC0F7FF1CC099
:100ADC00F6FF1BC0F4FF1AC0F3FF19C0DAFF18C0F1
:100AEC00D9FF17C0E2FF16C0E1FF15C0EAFF14C022
:100AFC00E9FF13C0FBFF12C0FAFF3A921100F4ECAD
:100B0C0006F0E4EC06F06BEC06F0000E2D6E010E18
:100B1C002E6E080E2F6E010EFDEC05F00B0E336ED3
:100B2C00260E326E5E0EE82EFED7322EFCD7332EFA
:100B3C00FAD7F0EC06F0000E2D6E110E2E6E080E8C
:100B4C002F6E010EFDEC05F00B0E336E260E326E81
:100B5C005E0EE82EFED7322EFCD7332EFAD7F0ECF1
:100B6C0006F0FFD736043710D8B439BE0DD0395043
:100B7C0004E10F0E385CD8A007D0000E376E030EC0
:100B8C00366E386839681200020E36183710D8A441
:100B9C00120039BE1200395004E1100E385CD8A096
:100BAC001200000E376E010E366E38683968F8EC9C
:100BBC0006F01200F80EF66E0D0EF76E000EF86EC3
:100BCC0000EE34F010EE06F00900F5CFEEFFE55024
:100BDC00E150FAE100EE60F0640EEE6AE806FDE129
:100BEC003A903A92000EF86E000185EF05F0306EE7
:100BFC00000E316E020E306008D02D500F0B8009A4
:100C0C00316E3150BAEC06F007D02D500F0BC009E5
:100C1C00316E3150BAEC06F02EC02BF02FC02CF0F8
:100C2C0082EC06F012000D6E000E0E6E020E0D60C0
:100C3C0008D00A500F0B80090E6E0E50D6EC06F041
:100C4C0007D00A500F0BC0090E6E0E50D6EC06F0F2
:100C5C000BC008F00CC009F097EC06F01200000E67
:100C6C00276E000E266E0FD0000E296E000E286E19
:100C7C00295007E1510E285CD8B003D0284A292A04
:100C8C00F7D7264A272A2650245C27502558D8A067
:100C9C001200EAD7000E046E000E036E0FD0000E89
:100CAC00066E000E056E065007E1510E055CD8B0BD
:100CBC0003D0054A062AF7D7034A042A0350015CDD
:100CCC0004500258D8A01200EAD7000E256E0F0E61
:100CDC00246E35EC06F0000E956E000E946E380EF8
:100CEC00BAEC06F0010EBAEC06F00C0EBAEC06F0FB
:100CFC00060EBAEC06F012000AD02BC0F6FF2CC080
:100D0C00F7FF0800F550ACEC06F02B4A2C2A2BC050
:100D1C00F6FF2CC0F7FF0800F5500009D8B41200FC
:100D2C00ECD70AD008C0F6FF09C0F7FF0800F55051
:100D3C00C8EC06F0084A092A08C0F6FF09C0F7FFFC
:100D4C000800F5500009D8B41200ECD72A6E2AC05E
:100D5C008CFF8B808B8200F08B92000E256E010E27
:100D6C00246E35EC06F012002A6E2AC08CFF8B9094
:100D7C008B8200F08B92000E256E030E246E35ECE8
:100D8C0006F01200076E07C08CFF8B808B8200F080
:100D9C008B92000E026E010E016E50EC06F01200EA
:100DAC00076E07C08CFF8B908B8200F08B92000E2D
:100DBC00026E030E016E50EC06F01200AC84340E81
:100DCC00AF6EAC98AB8E948C948E9D8AF28CF28E16
:100DDC00AB881200010EBAEC06F01200D388D38A4D
:100DEC00D38C1200010ED6EC06F01200FFFF0100AE
:080DFC00FFFF346835681200A6
:020000040020DA
:08000000FFFFFFFFFFFFFFFF00
:020000040030CA
:0E0000000008191EFF0185FF0FC00FE00F4022
:00000001FF
